{
  "_format": "hh-sol-artifact-1",
  "contractName": "ECommerce",
  "sourceName": "contracts/ECommerce.sol",
  "abi": [
    {
      "inputs": [],
      "stateMutability": "nonpayable",
      "type": "constructor"
    },
    {
      "anonymous": false,
      "inputs": [
        {
          "indexed": false,
          "internalType": "address",
          "name": "buyer",
          "type": "address"
        },
        {
          "indexed": false,
          "internalType": "uint256",
          "name": "orderId",
          "type": "uint256"
        },
        {
          "indexed": false,
          "internalType": "uint256",
          "name": "itemId",
          "type": "uint256"
        }
      ],
      "name": "Buy",
      "type": "event"
    },
    {
      "anonymous": false,
      "inputs": [
        {
          "indexed": false,
          "internalType": "string",
          "name": "name",
          "type": "string"
        },
        {
          "indexed": false,
          "internalType": "uint256",
          "name": "cost",
          "type": "uint256"
        },
        {
          "indexed": false,
          "internalType": "uint256",
          "name": "quantity",
          "type": "uint256"
        }
      ],
      "name": "List",
      "type": "event"
    },
    {
      "inputs": [
        {
          "internalType": "uint256",
          "name": "",
          "type": "uint256"
        }
      ],
      "name": "items",
      "outputs": [
        {
          "internalType": "uint256",
          "name": "id",
          "type": "uint256"
        },
        {
          "internalType": "string",
          "name": "name",
          "type": "string"
        },
        {
          "internalType": "string",
          "name": "category",
          "type": "string"
        },
        {
          "internalType": "string",
          "name": "image",
          "type": "string"
        },
        {
          "internalType": "uint256",
          "name": "cost",
          "type": "uint256"
        },
        {
          "internalType": "uint256",
          "name": "rating",
          "type": "uint256"
        },
        {
          "internalType": "uint256",
          "name": "stock",
          "type": "uint256"
        }
      ],
      "stateMutability": "view",
      "type": "function"
    },
    {
      "inputs": [
        {
          "internalType": "uint256",
          "name": "_id",
          "type": "uint256"
        },
        {
          "internalType": "string",
          "name": "_name",
          "type": "string"
        },
        {
          "internalType": "string",
          "name": "_category",
          "type": "string"
        },
        {
          "internalType": "string",
          "name": "_image",
          "type": "string"
        },
        {
          "internalType": "uint256",
          "name": "_cost",
          "type": "uint256"
        },
        {
          "internalType": "uint256",
          "name": "_rating",
          "type": "uint256"
        },
        {
          "internalType": "uint256",
          "name": "_stock",
          "type": "uint256"
        }
      ],
      "name": "listItem",
      "outputs": [],
      "stateMutability": "nonpayable",
      "type": "function"
    },
    {
      "inputs": [
        {
          "internalType": "address",
          "name": "",
          "type": "address"
        }
      ],
      "name": "orderCount",
      "outputs": [
        {
          "internalType": "uint256",
          "name": "",
          "type": "uint256"
        }
      ],
      "stateMutability": "view",
      "type": "function"
    },
    {
      "inputs": [
        {
          "internalType": "address",
          "name": "",
          "type": "address"
        },
        {
          "internalType": "uint256",
          "name": "",
          "type": "uint256"
        }
      ],
      "name": "orders",
      "outputs": [
        {
          "internalType": "uint256",
          "name": "time",
          "type": "uint256"
        },
        {
          "components": [
            {
              "internalType": "uint256",
              "name": "id",
              "type": "uint256"
            },
            {
              "internalType": "string",
              "name": "name",
              "type": "string"
            },
            {
              "internalType": "string",
              "name": "category",
              "type": "string"
            },
            {
              "internalType": "string",
              "name": "image",
              "type": "string"
            },
            {
              "internalType": "uint256",
              "name": "cost",
              "type": "uint256"
            },
            {
              "internalType": "uint256",
              "name": "rating",
              "type": "uint256"
            },
            {
              "internalType": "uint256",
              "name": "stock",
              "type": "uint256"
            }
          ],
          "internalType": "struct ECommerce.Item",
          "name": "item",
          "type": "tuple"
        }
      ],
      "stateMutability": "view",
      "type": "function"
    },
    {
      "inputs": [],
      "name": "owner",
      "outputs": [
        {
          "internalType": "address",
          "name": "",
          "type": "address"
        }
      ],
      "stateMutability": "view",
      "type": "function"
    },
    {
      "inputs": [
        {
          "internalType": "uint256",
          "name": "_id",
          "type": "uint256"
        }
      ],
      "name": "purchaseItem",
      "outputs": [],
      "stateMutability": "payable",
      "type": "function"
    },
    {
      "inputs": [],
      "name": "withdraw",
      "outputs": [],
      "stateMutability": "nonpayable",
      "type": "function"
    }
  ],
  "bytecode": "0x6080604052348015600f57600080fd5b50336000806101000a81548173ffffffffffffffffffffffffffffffffffffffff021916908373ffffffffffffffffffffffffffffffffffffffff1602179055506118468061005f6000396000f3fe6080604052600436106100705760003560e01c8063793b8c6d1161004e578063793b8c6d146100f25780638da5cb5b14610130578063bfb231d21461015b578063d38ea5bf1461019e57610070565b806336a3968c146100755780633ccfd60b1461009e578063713d856b146100b5575b600080fd5b34801561008157600080fd5b5061009c60048036038101906100979190610e7c565b6101ba565b005b3480156100aa57600080fd5b506100b361030f565b005b3480156100c157600080fd5b506100dc60048036038101906100d79190610fd0565b610401565b6040516100e9919061100c565b60405180910390f35b3480156100fe57600080fd5b5061011960048036038101906101149190611027565b610419565b60405161012792919061119f565b60405180910390f35b34801561013c57600080fd5b50610145610632565b60405161015291906111de565b60405180910390f35b34801561016757600080fd5b50610182600480360381019061017d91906111f9565b610656565b6040516101959796959493929190611270565b60405180910390f35b6101b860048036038101906101b391906111f9565b610830565b005b60008054906101000a900473ffffffffffffffffffffffffffffffffffffffff1673ffffffffffffffffffffffffffffffffffffffff163373ffffffffffffffffffffffffffffffffffffffff161461021257600080fd5b60006040518060e0016040528089815260200188815260200187815260200186815260200185815260200184815260200183815250905080600160008a815260200190815260200160002060008201518160000155602082015181600101908161027c9190611500565b5060408201518160020190816102929190611500565b5060608201518160030190816102a89190611500565b506080820151816004015560a0820151816005015560c082015181600601559050507ffdbe2a012c10ec01592653978eaa09b5ca60b143a0e617505b2ebcbd911ec5b88785846040516102fd939291906115d2565b60405180910390a15050505050505050565b60008054906101000a900473ffffffffffffffffffffffffffffffffffffffff1673ffffffffffffffffffffffffffffffffffffffff163373ffffffffffffffffffffffffffffffffffffffff161461036757600080fd5b60008060009054906101000a900473ffffffffffffffffffffffffffffffffffffffff1673ffffffffffffffffffffffffffffffffffffffff16476040516103ae90611641565b60006040518083038185875af1925050503d80600081146103eb576040519150601f19603f3d011682016040523d82523d6000602084013e6103f0565b606091505b50509050806103fe57600080fd5b50565b60026020528060005260406000206000915090505481565b600360205281600052604060002060205280600052604060002060009150915050806000015490806001016040518060e00160405290816000820154815260200160018201805461046990611323565b80601f016020809104026020016040519081016040528092919081815260200182805461049590611323565b80156104e25780601f106104b7576101008083540402835291602001916104e2565b820191906000526020600020905b8154815290600101906020018083116104c557829003601f168201915b505050505081526020016002820180546104fb90611323565b80601f016020809104026020016040519081016040528092919081815260200182805461052790611323565b80156105745780601f1061054957610100808354040283529160200191610574565b820191906000526020600020905b81548152906001019060200180831161055757829003601f168201915b5050505050815260200160038201805461058d90611323565b80601f01602080910402602001604051908101604052809291908181526020018280546105b990611323565b80156106065780601f106105db57610100808354040283529160200191610606565b820191906000526020600020905b8154815290600101906020018083116105e957829003601f168201915b505050505081526020016004820154815260200160058201548152602001600682015481525050905082565b60008054906101000a900473ffffffffffffffffffffffffffffffffffffffff1681565b600160205280600052604060002060009150905080600001549080600101805461067f90611323565b80601f01602080910402602001604051908101604052809291908181526020018280546106ab90611323565b80156106f85780601f106106cd576101008083540402835291602001916106f8565b820191906000526020600020905b8154815290600101906020018083116106db57829003601f168201915b50505050509080600201805461070d90611323565b80601f016020809104026020016040519081016040528092919081815260200182805461073990611323565b80156107865780601f1061075b57610100808354040283529160200191610786565b820191906000526020600020905b81548152906001019060200180831161076957829003601f168201915b50505050509080600301805461079b90611323565b80601f01602080910402602001604051908101604052809291908181526020018280546107c790611323565b80156108145780601f106107e957610100808354040283529160200191610814565b820191906000526020600020905b8154815290600101906020018083116107f757829003601f168201915b5050505050908060040154908060050154908060060154905087565b6000600160008381526020019081526020016000206040518060e00160405290816000820154815260200160018201805461086a90611323565b80601f016020809104026020016040519081016040528092919081815260200182805461089690611323565b80156108e35780601f106108b8576101008083540402835291602001916108e3565b820191906000526020600020905b8154815290600101906020018083116108c657829003601f168201915b505050505081526020016002820180546108fc90611323565b80601f016020809104026020016040519081016040528092919081815260200182805461092890611323565b80156109755780601f1061094a57610100808354040283529160200191610975565b820191906000526020600020905b81548152906001019060200180831161095857829003601f168201915b5050505050815260200160038201805461098e90611323565b80601f01602080910402602001604051908101604052809291908181526020018280546109ba90611323565b8015610a075780601f106109dc57610100808354040283529160200191610a07565b820191906000526020600020905b8154815290600101906020018083116109ea57829003601f168201915b50505050508152602001600482015481526020016005820154815260200160068201548152505090508060800151341015610a77576040517f08c379a0000000000000000000000000000000000000000000000000000000008152600401610a6e906116a2565b60405180910390fd5b60008160c0015111610abe576040517f08c379a0000000000000000000000000000000000000000000000000000000008152600401610ab59061170e565b60405180910390fd5b60006040518060400160405280428152602001838152509050600260003373ffffffffffffffffffffffffffffffffffffffff1673ffffffffffffffffffffffffffffffffffffffff1681526020019081526020016000206000815480929190610b279061175d565b919050555080600360003373ffffffffffffffffffffffffffffffffffffffff1673ffffffffffffffffffffffffffffffffffffffff1681526020019081526020016000206000600260003373ffffffffffffffffffffffffffffffffffffffff1673ffffffffffffffffffffffffffffffffffffffff16815260200190815260200160002054815260200190815260200160002060008201518160000155602082015181600101600082015181600001556020820151816001019081610bee9190611500565b506040820151816002019081610c049190611500565b506060820151816003019081610c1a9190611500565b506080820151816004015560a0820151816005015560c08201518160060155505090505060018260c00151610c4f91906117a5565b60016000858152602001908152602001600020600601819055507f1cbc5ab135991bd2b6a4b034a04aa2aa086dac1371cb9b16b8b5e2ed6b036bed33600260003373ffffffffffffffffffffffffffffffffffffffff1673ffffffffffffffffffffffffffffffffffffffff168152602001908152602001600020548460000151604051610cdf939291906117d9565b60405180910390a1505050565b6000604051905090565b600080fd5b600080fd5b6000819050919050565b610d1381610d00565b8114610d1e57600080fd5b50565b600081359050610d3081610d0a565b92915050565b600080fd5b600080fd5b6000601f19601f8301169050919050565b7f4e487b7100000000000000000000000000000000000000000000000000000000600052604160045260246000fd5b610d8982610d40565b810181811067ffffffffffffffff82111715610da857610da7610d51565b5b80604052505050565b6000610dbb610cec565b9050610dc78282610d80565b919050565b600067ffffffffffffffff821115610de757610de6610d51565b5b610df082610d40565b9050602081019050919050565b82818337600083830152505050565b6000610e1f610e1a84610dcc565b610db1565b905082815260208101848484011115610e3b57610e3a610d3b565b5b610e46848285610dfd565b509392505050565b600082601f830112610e6357610e62610d36565b5b8135610e73848260208601610e0c565b91505092915050565b600080600080600080600060e0888a031215610e9b57610e9a610cf6565b5b6000610ea98a828b01610d21565b975050602088013567ffffffffffffffff811115610eca57610ec9610cfb565b5b610ed68a828b01610e4e565b965050604088013567ffffffffffffffff811115610ef757610ef6610cfb565b5b610f038a828b01610e4e565b955050606088013567ffffffffffffffff811115610f2457610f23610cfb565b5b610f308a828b01610e4e565b9450506080610f418a828b01610d21565b93505060a0610f528a828b01610d21565b92505060c0610f638a828b01610d21565b91505092959891949750929550565b600073ffffffffffffffffffffffffffffffffffffffff82169050919050565b6000610f9d82610f72565b9050919050565b610fad81610f92565b8114610fb857600080fd5b50565b600081359050610fca81610fa4565b92915050565b600060208284031215610fe657610fe5610cf6565b5b6000610ff484828501610fbb565b91505092915050565b61100681610d00565b82525050565b60006020820190506110216000830184610ffd565b92915050565b6000806040838503121561103e5761103d610cf6565b5b600061104c85828601610fbb565b925050602061105d85828601610d21565b9150509250929050565b61107081610d00565b82525050565b600081519050919050565b600082825260208201905092915050565b60005b838110156110b0578082015181840152602081019050611095565b60008484015250505050565b60006110c782611076565b6110d18185611081565b93506110e1818560208601611092565b6110ea81610d40565b840191505092915050565b600060e08301600083015161110d6000860182611067565b506020830151848203602086015261112582826110bc565b9150506040830151848203604086015261113f82826110bc565b9150506060830151848203606086015261115982826110bc565b915050608083015161116e6080860182611067565b5060a083015161118160a0860182611067565b5060c083015161119460c0860182611067565b508091505092915050565b60006040820190506111b46000830185610ffd565b81810360208301526111c681846110f5565b90509392505050565b6111d881610f92565b82525050565b60006020820190506111f360008301846111cf565b92915050565b60006020828403121561120f5761120e610cf6565b5b600061121d84828501610d21565b91505092915050565b600082825260208201905092915050565b600061124282611076565b61124c8185611226565b935061125c818560208601611092565b61126581610d40565b840191505092915050565b600060e082019050611285600083018a610ffd565b81810360208301526112978189611237565b905081810360408301526112ab8188611237565b905081810360608301526112bf8187611237565b90506112ce6080830186610ffd565b6112db60a0830185610ffd565b6112e860c0830184610ffd565b98975050505050505050565b7f4e487b7100000000000000000000000000000000000000000000000000000000600052602260045260246000fd5b6000600282049050600182168061133b57607f821691505b60208210810361134e5761134d6112f4565b5b50919050565b60008190508160005260206000209050919050565b60006020601f8301049050919050565b600082821b905092915050565b6000600883026113b67fffffffffffffffffffffffffffffffffffffffffffffffffffffffffffffffff82611379565b6113c08683611379565b95508019841693508086168417925050509392505050565b6000819050919050565b60006113fd6113f86113f384610d00565b6113d8565b610d00565b9050919050565b6000819050919050565b611417836113e2565b61142b61142382611404565b848454611386565b825550505050565b600090565b611440611433565b61144b81848461140e565b505050565b5b8181101561146f57611464600082611438565b600181019050611451565b5050565b601f8211156114b45761148581611354565b61148e84611369565b8101602085101561149d578190505b6114b16114a985611369565b830182611450565b50505b505050565b600082821c905092915050565b60006114d7600019846008026114b9565b1980831691505092915050565b60006114f083836114c6565b9150826002028217905092915050565b61150982611076565b67ffffffffffffffff81111561152257611521610d51565b5b61152c8254611323565b611537828285611473565b600060209050601f83116001811461156a5760008415611558578287015190505b61156285826114e4565b8655506115ca565b601f19841661157886611354565b60005b828110156115a05784890151825560018201915060208501945060208101905061157b565b868310156115bd57848901516115b9601f8916826114c6565b8355505b6001600288020188555050505b505050505050565b600060608201905081810360008301526115ec8186611237565b90506115fb6020830185610ffd565b6116086040830184610ffd565b949350505050565b600081905092915050565b50565b600061162b600083611610565b91506116368261161b565b600082019050919050565b600061164c8261161e565b9150819050919050565b7f496e73756666696369656e74204554482073656e740000000000000000000000600082015250565b600061168c601583611226565b915061169782611656565b602082019050919050565b600060208201905081810360008301526116bb8161167f565b9050919050565b7f4974656d206973206f7574206f662073746f636b000000000000000000000000600082015250565b60006116f8601483611226565b9150611703826116c2565b602082019050919050565b60006020820190508181036000830152611727816116eb565b9050919050565b7f4e487b7100000000000000000000000000000000000000000000000000000000600052601160045260246000fd5b600061176882610d00565b91507fffffffffffffffffffffffffffffffffffffffffffffffffffffffffffffffff820361179a5761179961172e565b5b600182019050919050565b60006117b082610d00565b91506117bb83610d00565b92508282039050818111156117d3576117d261172e565b5b92915050565b60006060820190506117ee60008301866111cf565b6117fb6020830185610ffd565b6118086040830184610ffd565b94935050505056fea26469706673582212207afbf764a09ede7f0d20a99fb6a90699f62d7e37053a740d8285b0b86167f58f64736f6c634300081c0033",
  "linkReferences": {},
  "deployedLinkReferences": {}
}