{
  "_format": "hh-sol-artifact-1",
  "contractName": "Dappazon",
  "sourceName": "contracts/Dappazon.sol",
  "abi": [
    {
      "inputs": [],
      "stateMutability": "nonpayable",
      "type": "constructor"
    },
    {
      "anonymous": false,
      "inputs": [
        {
          "indexed": false,
          "internalType": "address",
          "name": "buyer",
          "type": "address"
        },
        {
          "indexed": false,
          "internalType": "uint256",
          "name": "orderId",
          "type": "uint256"
        },
        {
          "indexed": false,
          "internalType": "uint256",
          "name": "itemId",
          "type": "uint256"
        }
      ],
      "name": "Buy",
      "type": "event"
    },
    {
      "anonymous": false,
      "inputs": [
        {
          "indexed": false,
          "internalType": "string",
          "name": "name",
          "type": "string"
        },
        {
          "indexed": false,
          "internalType": "uint256",
          "name": "cost",
          "type": "uint256"
        },
        {
          "indexed": false,
          "internalType": "uint256",
          "name": "quantity",
          "type": "uint256"
        }
      ],
      "name": "List",
      "type": "event"
    },
    {
      "inputs": [
        {
          "internalType": "uint256",
          "name": "",
          "type": "uint256"
        }
      ],
      "name": "items",
      "outputs": [
        {
          "internalType": "uint256",
          "name": "id",
          "type": "uint256"
        },
        {
          "internalType": "string",
          "name": "name",
          "type": "string"
        },
        {
          "internalType": "string",
          "name": "category",
          "type": "string"
        },
        {
          "internalType": "string",
          "name": "image",
          "type": "string"
        },
        {
          "internalType": "uint256",
          "name": "cost",
          "type": "uint256"
        },
        {
          "internalType": "uint256",
          "name": "rating",
          "type": "uint256"
        },
        {
          "internalType": "uint256",
          "name": "stock",
          "type": "uint256"
        }
      ],
      "stateMutability": "view",
      "type": "function"
    },
    {
      "inputs": [
        {
          "internalType": "uint256",
          "name": "_id",
          "type": "uint256"
        },
        {
          "internalType": "string",
          "name": "_name",
          "type": "string"
        },
        {
          "internalType": "string",
          "name": "_category",
          "type": "string"
        },
        {
          "internalType": "string",
          "name": "_image",
          "type": "string"
        },
        {
          "internalType": "uint256",
          "name": "_cost",
          "type": "uint256"
        },
        {
          "internalType": "uint256",
          "name": "_rating",
          "type": "uint256"
        },
        {
          "internalType": "uint256",
          "name": "_stock",
          "type": "uint256"
        }
      ],
      "name": "listItem",
      "outputs": [],
      "stateMutability": "nonpayable",
      "type": "function"
    },
    {
      "inputs": [
        {
          "internalType": "address",
          "name": "",
          "type": "address"
        }
      ],
      "name": "orderCount",
      "outputs": [
        {
          "internalType": "uint256",
          "name": "",
          "type": "uint256"
        }
      ],
      "stateMutability": "view",
      "type": "function"
    },
    {
      "inputs": [
        {
          "internalType": "address",
          "name": "",
          "type": "address"
        },
        {
          "internalType": "uint256",
          "name": "",
          "type": "uint256"
        }
      ],
      "name": "orders",
      "outputs": [
        {
          "internalType": "uint256",
          "name": "time",
          "type": "uint256"
        },
        {
          "components": [
            {
              "internalType": "uint256",
              "name": "id",
              "type": "uint256"
            },
            {
              "internalType": "string",
              "name": "name",
              "type": "string"
            },
            {
              "internalType": "string",
              "name": "category",
              "type": "string"
            },
            {
              "internalType": "string",
              "name": "image",
              "type": "string"
            },
            {
              "internalType": "uint256",
              "name": "cost",
              "type": "uint256"
            },
            {
              "internalType": "uint256",
              "name": "rating",
              "type": "uint256"
            },
            {
              "internalType": "uint256",
              "name": "stock",
              "type": "uint256"
            }
          ],
          "internalType": "struct Dappazon.Item",
          "name": "item",
          "type": "tuple"
        }
      ],
      "stateMutability": "view",
      "type": "function"
    },
    {
      "inputs": [],
      "name": "owner",
      "outputs": [
        {
          "internalType": "address",
          "name": "",
          "type": "address"
        }
      ],
      "stateMutability": "view",
      "type": "function"
    },
    {
      "inputs": [
        {
          "internalType": "uint256",
          "name": "_id",
          "type": "uint256"
        }
      ],
      "name": "purchaseItem",
      "outputs": [],
      "stateMutability": "payable",
      "type": "function"
    },
    {
      "inputs": [],
      "name": "seller",
      "outputs": [
        {
          "internalType": "address payable",
          "name": "",
          "type": "address"
        }
      ],
      "stateMutability": "view",
      "type": "function"
    }
  ],
  "bytecode": "0x608060405273f39fd6e51aad88f6f4ce6ab8827279cfffb92266600160006101000a81548173ffffffffffffffffffffffffffffffffffffffff021916908373ffffffffffffffffffffffffffffffffffffffff160217905550348015606457600080fd5b50336000806101000a81548173ffffffffffffffffffffffffffffffffffffffff021916908373ffffffffffffffffffffffffffffffffffffffff160217905550611a5e806100b46000396000f3fe6080604052600436106100705760003560e01c8063793b8c6d1161004e578063793b8c6d146101065780638da5cb5b14610144578063bfb231d21461016f578063d38ea5bf146101b257610070565b806308551a531461007557806336a3968c146100a0578063713d856b146100c9575b600080fd5b34801561008157600080fd5b5061008a6101ce565b6040516100979190610dc5565b60405180910390f35b3480156100ac57600080fd5b506100c760048036038101906100c29190610f70565b6101f4565b005b3480156100d557600080fd5b506100f060048036038101906100eb91906110a4565b61037f565b6040516100fd91906110e0565b60405180910390f35b34801561011257600080fd5b5061012d600480360381019061012891906110fb565b610397565b60405161013b929190611273565b60405180910390f35b34801561015057600080fd5b506101596105b0565b60405161016691906112b2565b60405180910390f35b34801561017b57600080fd5b50610196600480360381019061019191906112cd565b6105d4565b6040516101a99796959493929190611344565b60405180910390f35b6101cc60048036038101906101c791906112cd565b6107ae565b005b600160009054906101000a900473ffffffffffffffffffffffffffffffffffffffff1681565b60008054906101000a900473ffffffffffffffffffffffffffffffffffffffff1673ffffffffffffffffffffffffffffffffffffffff163373ffffffffffffffffffffffffffffffffffffffff1614610282576040517f08c379a000000000000000000000000000000000000000000000000000000000815260040161027990611414565b60405180910390fd5b60006040518060e0016040528089815260200188815260200187815260200186815260200185815260200184815260200183815250905080600260008a81526020019081526020016000206000820151816000015560208201518160010190816102ec9190611640565b5060408201518160020190816103029190611640565b5060608201518160030190816103189190611640565b506080820151816004015560a0820151816005015560c082015181600601559050507ffdbe2a012c10ec01592653978eaa09b5ca60b143a0e617505b2ebcbd911ec5b887858460405161036d93929190611712565b60405180910390a15050505050505050565b60036020528060005260406000206000915090505481565b600460205281600052604060002060205280600052604060002060009150915050806000015490806001016040518060e0016040529081600082015481526020016001820180546103e790611463565b80601f016020809104026020016040519081016040528092919081815260200182805461041390611463565b80156104605780601f1061043557610100808354040283529160200191610460565b820191906000526020600020905b81548152906001019060200180831161044357829003601f168201915b5050505050815260200160028201805461047990611463565b80601f01602080910402602001604051908101604052809291908181526020018280546104a590611463565b80156104f25780601f106104c7576101008083540402835291602001916104f2565b820191906000526020600020905b8154815290600101906020018083116104d557829003601f168201915b5050505050815260200160038201805461050b90611463565b80601f016020809104026020016040519081016040528092919081815260200182805461053790611463565b80156105845780601f1061055957610100808354040283529160200191610584565b820191906000526020600020905b81548152906001019060200180831161056757829003601f168201915b505050505081526020016004820154815260200160058201548152602001600682015481525050905082565b60008054906101000a900473ffffffffffffffffffffffffffffffffffffffff1681565b60026020528060005260406000206000915090508060000154908060010180546105fd90611463565b80601f016020809104026020016040519081016040528092919081815260200182805461062990611463565b80156106765780601f1061064b57610100808354040283529160200191610676565b820191906000526020600020905b81548152906001019060200180831161065957829003601f168201915b50505050509080600201805461068b90611463565b80601f01602080910402602001604051908101604052809291908181526020018280546106b790611463565b80156107045780601f106106d957610100808354040283529160200191610704565b820191906000526020600020905b8154815290600101906020018083116106e757829003601f168201915b50505050509080600301805461071990611463565b80601f016020809104026020016040519081016040528092919081815260200182805461074590611463565b80156107925780601f1061076757610100808354040283529160200191610792565b820191906000526020600020905b81548152906001019060200180831161077557829003601f168201915b5050505050908060040154908060050154908060060154905087565b6000600260008381526020019081526020016000206040518060e0016040529081600082015481526020016001820180546107e890611463565b80601f016020809104026020016040519081016040528092919081815260200182805461081490611463565b80156108615780601f1061083657610100808354040283529160200191610861565b820191906000526020600020905b81548152906001019060200180831161084457829003601f168201915b5050505050815260200160028201805461087a90611463565b80601f01602080910402602001604051908101604052809291908181526020018280546108a690611463565b80156108f35780601f106108c8576101008083540402835291602001916108f3565b820191906000526020600020905b8154815290600101906020018083116108d657829003601f168201915b5050505050815260200160038201805461090c90611463565b80601f016020809104026020016040519081016040528092919081815260200182805461093890611463565b80156109855780601f1061095a57610100808354040283529160200191610985565b820191906000526020600020905b81548152906001019060200180831161096857829003601f168201915b505050505081526020016004820154815260200160058201548152602001600682015481525050905060008160800151116109f5576040517f08c379a00000000000000000000000000000000000000000000000000000000081526004016109ec9061179c565b60405180910390fd5b8060800151341015610a3c576040517f08c379a0000000000000000000000000000000000000000000000000000000008152600401610a3390611808565b60405180910390fd5b60008160c0015111610a83576040517f08c379a0000000000000000000000000000000000000000000000000000000008152600401610a7a90611874565b60405180910390fd5b60006040518060400160405280428152602001838152509050600360003373ffffffffffffffffffffffffffffffffffffffff1673ffffffffffffffffffffffffffffffffffffffff1681526020019081526020016000206000815480929190610aec906118c3565b919050555080600460003373ffffffffffffffffffffffffffffffffffffffff1673ffffffffffffffffffffffffffffffffffffffff1681526020019081526020016000206000600360003373ffffffffffffffffffffffffffffffffffffffff1673ffffffffffffffffffffffffffffffffffffffff16815260200190815260200160002054815260200190815260200160002060008201518160000155602082015181600101600082015181600001556020820151816001019081610bb39190611640565b506040820151816002019081610bc99190611640565b506060820151816003019081610bdf9190611640565b506080820151816004015560a0820151816005015560c08201518160060155505090505060018260c00151610c14919061190b565b60026000858152602001908152602001600020600601819055506000600160009054906101000a900473ffffffffffffffffffffffffffffffffffffffff1673ffffffffffffffffffffffffffffffffffffffff168360800151604051610c7a90611970565b60006040518083038185875af1925050503d8060008114610cb7576040519150601f19603f3d011682016040523d82523d6000602084013e610cbc565b606091505b5050905080610d00576040517f08c379a0000000000000000000000000000000000000000000000000000000008152600401610cf7906119d1565b60405180910390fd5b7f1cbc5ab135991bd2b6a4b034a04aa2aa086dac1371cb9b16b8b5e2ed6b036bed33600360003373ffffffffffffffffffffffffffffffffffffffff1673ffffffffffffffffffffffffffffffffffffffff168152602001908152602001600020548560000151604051610d76939291906119f1565b60405180910390a150505050565b600073ffffffffffffffffffffffffffffffffffffffff82169050919050565b6000610daf82610d84565b9050919050565b610dbf81610da4565b82525050565b6000602082019050610dda6000830184610db6565b92915050565b6000604051905090565b600080fd5b600080fd5b6000819050919050565b610e0781610df4565b8114610e1257600080fd5b50565b600081359050610e2481610dfe565b92915050565b600080fd5b600080fd5b6000601f19601f8301169050919050565b7f4e487b7100000000000000000000000000000000000000000000000000000000600052604160045260246000fd5b610e7d82610e34565b810181811067ffffffffffffffff82111715610e9c57610e9b610e45565b5b80604052505050565b6000610eaf610de0565b9050610ebb8282610e74565b919050565b600067ffffffffffffffff821115610edb57610eda610e45565b5b610ee482610e34565b9050602081019050919050565b82818337600083830152505050565b6000610f13610f0e84610ec0565b610ea5565b905082815260208101848484011115610f2f57610f2e610e2f565b5b610f3a848285610ef1565b509392505050565b600082601f830112610f5757610f56610e2a565b5b8135610f67848260208601610f00565b91505092915050565b600080600080600080600060e0888a031215610f8f57610f8e610dea565b5b6000610f9d8a828b01610e15565b975050602088013567ffffffffffffffff811115610fbe57610fbd610def565b5b610fca8a828b01610f42565b965050604088013567ffffffffffffffff811115610feb57610fea610def565b5b610ff78a828b01610f42565b955050606088013567ffffffffffffffff81111561101857611017610def565b5b6110248a828b01610f42565b94505060806110358a828b01610e15565b93505060a06110468a828b01610e15565b92505060c06110578a828b01610e15565b91505092959891949750929550565b600061107182610d84565b9050919050565b61108181611066565b811461108c57600080fd5b50565b60008135905061109e81611078565b92915050565b6000602082840312156110ba576110b9610dea565b5b60006110c88482850161108f565b91505092915050565b6110da81610df4565b82525050565b60006020820190506110f560008301846110d1565b92915050565b6000806040838503121561111257611111610dea565b5b60006111208582860161108f565b925050602061113185828601610e15565b9150509250929050565b61114481610df4565b82525050565b600081519050919050565b600082825260208201905092915050565b60005b83811015611184578082015181840152602081019050611169565b60008484015250505050565b600061119b8261114a565b6111a58185611155565b93506111b5818560208601611166565b6111be81610e34565b840191505092915050565b600060e0830160008301516111e1600086018261113b565b50602083015184820360208601526111f98282611190565b915050604083015184820360408601526112138282611190565b9150506060830151848203606086015261122d8282611190565b9150506080830151611242608086018261113b565b5060a083015161125560a086018261113b565b5060c083015161126860c086018261113b565b508091505092915050565b600060408201905061128860008301856110d1565b818103602083015261129a81846111c9565b90509392505050565b6112ac81611066565b82525050565b60006020820190506112c760008301846112a3565b92915050565b6000602082840312156112e3576112e2610dea565b5b60006112f184828501610e15565b91505092915050565b600082825260208201905092915050565b60006113168261114a565b61132081856112fa565b9350611330818560208601611166565b61133981610e34565b840191505092915050565b600060e082019050611359600083018a6110d1565b818103602083015261136b818961130b565b9050818103604083015261137f818861130b565b90508181036060830152611393818761130b565b90506113a260808301866110d1565b6113af60a08301856110d1565b6113bc60c08301846110d1565b98975050505050505050565b7f4e6f74206f776e65720000000000000000000000000000000000000000000000600082015250565b60006113fe6009836112fa565b9150611409826113c8565b602082019050919050565b6000602082019050818103600083015261142d816113f1565b9050919050565b7f4e487b7100000000000000000000000000000000000000000000000000000000600052602260045260246000fd5b6000600282049050600182168061147b57607f821691505b60208210810361148e5761148d611434565b5b50919050565b60008190508160005260206000209050919050565b60006020601f8301049050919050565b600082821b905092915050565b6000600883026114f67fffffffffffffffffffffffffffffffffffffffffffffffffffffffffffffffff826114b9565b61150086836114b9565b95508019841693508086168417925050509392505050565b6000819050919050565b600061153d61153861153384610df4565b611518565b610df4565b9050919050565b6000819050919050565b61155783611522565b61156b61156382611544565b8484546114c6565b825550505050565b600090565b611580611573565b61158b81848461154e565b505050565b5b818110156115af576115a4600082611578565b600181019050611591565b5050565b601f8211156115f4576115c581611494565b6115ce846114a9565b810160208510156115dd578190505b6115f16115e9856114a9565b830182611590565b50505b505050565b600082821c905092915050565b6000611617600019846008026115f9565b1980831691505092915050565b60006116308383611606565b9150826002028217905092915050565b6116498261114a565b67ffffffffffffffff81111561166257611661610e45565b5b61166c8254611463565b6116778282856115b3565b600060209050601f8311600181146116aa5760008415611698578287015190505b6116a28582611624565b86555061170a565b601f1984166116b886611494565b60005b828110156116e0578489015182556001820191506020850194506020810190506116bb565b868310156116fd57848901516116f9601f891682611606565b8355505b6001600288020188555050505b505050505050565b6000606082019050818103600083015261172c818661130b565b905061173b60208301856110d1565b61174860408301846110d1565b949350505050565b7f4974656d20646f6573206e6f7420657869737400000000000000000000000000600082015250565b60006117866013836112fa565b915061179182611750565b602082019050919050565b600060208201905081810360008301526117b581611779565b9050919050565b7f496e73756666696369656e742045544800000000000000000000000000000000600082015250565b60006117f26010836112fa565b91506117fd826117bc565b602082019050919050565b60006020820190508181036000830152611821816117e5565b9050919050565b7f4f7574206f662073746f636b0000000000000000000000000000000000000000600082015250565b600061185e600c836112fa565b915061186982611828565b602082019050919050565b6000602082019050818103600083015261188d81611851565b9050919050565b7f4e487b7100000000000000000000000000000000000000000000000000000000600052601160045260246000fd5b60006118ce82610df4565b91507fffffffffffffffffffffffffffffffffffffffffffffffffffffffffffffffff8203611900576118ff611894565b5b600182019050919050565b600061191682610df4565b915061192183610df4565b925082820390508181111561193957611938611894565b5b92915050565b600081905092915050565b50565b600061195a60008361193f565b91506119658261194a565b600082019050919050565b600061197b8261194d565b9150819050919050565b7f5061796d656e74206661696c6564000000000000000000000000000000000000600082015250565b60006119bb600e836112fa565b91506119c682611985565b602082019050919050565b600060208201905081810360008301526119ea816119ae565b9050919050565b6000606082019050611a0660008301866112a3565b611a1360208301856110d1565b611a2060408301846110d1565b94935050505056fea2646970667358221220f8c39e58cdd994e828785eaeadd1de4d76f7c027fc87f9a97b5634e4b2bf358864736f6c634300081c0033",
  "linkReferences": {},
  "deployedLinkReferences": {}
}